:100000000C9458000C9480000C9480000C94800098
:100010000C9480000C9480000C9480000C94800060
:100020000C9480000C9480000C9480000C94800050
:100030000C9480000C9480000C9480000C94800040
:100040000C946F030C9480000C9480000C9480003E
:100050000C9480000C9480000C9480000C94800020
:100060000C94B9030C9480000000000025002800C7
:100070002B00040404040404040402020202020229
:10008000030303030303010204081020408001025C
:1000900004081020010204081020000000080002DB
:1000A0000100000304070000000000000000A1059B
:1000B00011241FBECFEFD8E0DEBFCDBF11E0A0E01E
:1000C000B1E0E4E7FBE002C005900D92AA32B1076F
:1000D000D9F721E0AAE2B1E001C01D92A93FB20721
:1000E000E1F710E0C8E5D0E004C02197FE010E94CE
:1000F000B205C735D107C9F70E94D8040C94B805DA
:100100000C94000090E0FC01E656FF4F2491FC01A6
:10011000EA57FF4F3491FC01EE58FF4FE491EE2374
:10012000C9F0222339F0233001F1A8F4213019F16C
:10013000223029F1F0E0EE0FFF1FE859FF4FA591A3
:10014000B4918FB7F894EC91611126C030953E239D
:100150003C938FBF08952730A9F02830C9F0243090
:1001600049F7809180008F7D03C0809180008F7758
:1001700080938000DFCF84B58F7784BDDBCF84B5DB
:100180008F7DFBCF8091B0008F778093B000D2CF6E
:100190008091B0008F7DF9CF3E2BDACF3FB7F89436
:1001A0008091990190919A01A0919B01B0919C013D
:1001B00026B5A89B05C02F3F19F00196A11DB11DC2
:1001C0003FBFBA2FA92F982F8827BC01CD01620FFE
:1001D000711D811D911D42E0660F771F881F991FB9
:1001E0004A95D1F708958F929F92AF92BF92CF9286
:1001F000DF92EF92FF920E94CE004B015C018FE0F4
:10020000C82ED12CE12CF12C0E94CE00681979095E
:100210008A099B09683E734081059105A8F321E096
:10022000C21AD108E108F10888EE880E83E0981E12
:10023000A11CB11CC114D104E104F10429F7FF9001
:10024000EF90DF90CF90BF90AF909F908F900895E8
:100250000895089520916B01260F3327331F213213
:100260003105ECF42091C301FC0190E080E02430E2
:1002700069F082E00895A0916B012191AC01455B8A
:100280005E4FA40FB52FB11D2C930196861798F3DE
:1002900080916B01680F60936B0180E0089581E0AD
:1002A00008951092C30181E08093C20110929D01D4
:1002B00061E082E10E94820061E083E10E948200AD
:1002C000E9EBF0E080818E7F808380818D7F808369
:1002D00088E48093B80085E48093BC000895CF93B0
:1002E000DF9391E090934A018823B9F0C091B80060
:1002F000D091BA008091BC008A7B8093BC0060E002
:1003000082E10E94820060E083E10E9482000E94FC
:100310005101D093BA00C093B800DF91CF910895F6
:10032000CF92DF92EF92FF920F931F93CF93DF93C1
:10033000D091EC0181E0D13208F09CC0C091EB017A
:100340000E94CE006B017C018091C30181116CC0C1
:1003500082E08093C30181E08093C2018FEF80939C
:10036000C1011092C001D093BF01ABECB1E0EFE945
:10037000F1E080E0D8138DC010929E0180919E0123
:10038000CC0FC82BC0939E0180919D01813009F054
:1003900084C010929D010E94CE006B017C0180916F
:1003A0009E018093BB008091C5019091C601A091F0
:1003B000C701B091C801892B8A2B8B2BA1F00E9419
:1003C000CE000091C5011091C6012091C701309166
:1003D000C8016C197D098E099F09061717072807A0
:1003E000390708F442C08091BC0083FDD8CF85EC6A
:1003F0008093BC000E94CE006B017C018091C30100
:10040000823009F44CC08091C1018F3F09F469C06A
:100410008091C101803209F466C08091C1018033AE
:1004200009F463C084E026C08091C5019091C601A3
:10043000A091C701B091C801892B8A2B8B2B09F49D
:1004400083CF0E94CE000091C5011091C60120917A
:10045000C7013091C8016C197D098E099F090617E3
:1004600017072807390708F06FCF8091C4010E9451
:100470006F0185E01092CA011092EC011092C9013F
:10048000DF91CF911F910F91FF90EF90DF90CF9070
:1004900008959D9191938F5F6DCF85EEA9CF809147
:1004A000C5019091C601A091C701B091C801892BE7
:1004B0008A2B8B2B09F4A2CF0E94CE000091C5019C
:1004C0001091C6012091C7013091C8016C197D09B6
:1004D0008E099F09061717072807390708F08ECFDE
:1004E000C4CF80E0C7CF82E0C5CF83E0C3CF0895FB
:1004F000E091930180919201E81730F4F0E0E65D1D
:10050000FE4F808190E008958FEF9FEF08959091C6
:100510009301809192012FEF3FEF981748F4E92F54
:10052000F0E0E65DFE4F208130E09F5F9093930105
:10053000C90108958091920190919301891B990BB3
:100540000895CF92DF92EF92FF920F931F93CF9374
:10055000DF937C01CB018A012091C901222389F01C
:10056000EB016B01C40ED51ECC15DD0569F0699158
:10057000D701ED91FC910190F081E02DC701099523
:10058000F3CF642F0E942A01C801DF91CF911F9100
:100590000F91FF90EF90DF90CF900895CF93DF936E
:1005A0001F92CDB7DEB769832091C9012223F9F0EC
:1005B0002091EC01203258F021E030E0FC0133833F
:1005C000228390E080E00F90DF91CF910895809199
:1005D000CA01E82FF0E0E553FE4F998190838F5FC9
:1005E0008093CA018093EC0181E090E0ECCF61E060
:1005F000CE0101960E942A01F7CF682F8DEE91E07F
:100600000C94CE0290E080E00895CF93DF93C82F42
:1006100081E08093C90180E28093EB011092CA01CE
:100620001092EC01DC2FD07F8D2F8C6090E00E9427
:10063000FD020E94F300D8608D2F90E00E94FD0221
:100640000E94F30080E1C89FE0011124DD27CE0164
:100650008C600E94FD020E94F300CE0188600E941F
:10066000FD020E94F300DF91CF910C94900185ED83
:100670008093BC008091C5019091C601A091C701F3
:10068000B091C8010796A11DB11D23E0B695A795AD
:10069000979587952A95D1F72091BC0024FD03C03A
:1006A0001092C30108954091C5015091C601609117
:1006B000C7017091C801452B462B472B69F3009762
:1006C000A105B10541F02AE22A95F1F700C0019792
:1006D000A109B109E1CF8091C4010C946F011F926F
:1006E0000F920FB60F9211242F933F938F939F93E6
:1006F000AF93BF938091950190919601A09197013E
:10070000B09198013091940123E0230F2D3758F5D3
:100710000196A11DB11D20939401809395019093A2
:100720009601A0939701B0939801809199019091BF
:100730009A01A0919B01B0919C010196A11DB11D50
:100740008093990190939A01A0939B01B0939C018F
:10075000BF91AF919F918F913F912F910F900FBEBD
:100760000F901F90189526E8230F0296A11DB11D2A
:10077000D2CF1F920F920FB60F9211242F933F9357
:100780004F935F936F937F938F939F93AF93BF9399
:10079000EF93FF938091B900887F803609F44AC0B7
:1007A000F0F5883209F4A7C018F5803109F49BC030
:1007B000B8F4882309F4F9C0883009F494C0FF9193
:1007C000EF91BF91AF919F918F917F916F915F91C9
:1007D0004F913F912F910F900FBE0F901F90189542
:1007E000883109F488C0803251F78093C10114C068
:1007F000803409F49DC040F48033B9F38833F9F6AE
:100800008093C10185ECB0C0803509F485C088357E
:1008100009F496C0883499F60E943703D0CF8839FE
:1008200009F48CC038F5883729F050F4883611F077
:10083000803729F683E08093C30110928D0157C061
:10084000883809F47BC0803919F0803809F0B7CFB7
:1008500080918D01803208F071C0E0918D0181E0BE
:100860008E0F80938D018091BB00F0E0E359FE4F25
:1008700080833DC0803B39F0E0F4803A09F479C0D0
:10088000883A09F09CCF84E08093C30110926C01F8
:1008900010926B01E0919001F09191010995809186
:1008A0006B0181110FC081E080936B0110924B01AD
:1008B00009C0803C09F4A6CF883C09F4A3CF883B4B
:1008C00009F07DCFE0916C0181E08E0F80936C0187
:1008D000F0E0E55BFE4F80818093BB0090916C015E
:1008E00080916B0129C080919E018093BB0085ECB3
:1008F0008093BC0064CF9091C0018091BF01981794
:1009000058F5E091C00181E08E0F8093C001F0E0C6
:10091000E156FE4F8081E9CFE091C00181E08E0F6A
:100920008093C0018091BB00F0E0E156FE4F8083D0
:100930009091C0018091BF019817C8F285E8D8CF87
:10094000E091C00181E08E0F8093C0018091BB00D7
:10095000F0E0E156FE4F80838091C20181115CCFAF
:1009600081E080939D0184EA8093BC001092C301D2
:1009700026CF85EC8093BC001092C30180918D013D
:10098000803230F4E0918D01F0E0E359FE4F1082A7
:1009900060918D0170E0E0918E01F0918F018DE604
:1009A00091E0099510928D010ACF1092C10134CFC8
:1009B000789484B5826084BD84B5816084BD85B53A
:1009C000826085BD85B5816085BD80916E00816046
:1009D00080936E00109281008091810082608093EC
:1009E00081008091810081608093810080918000EE
:1009F0008160809380008091B10084608093B10019
:100A00008091B00081608093B00080917A00846012
:100A100080937A0080917A00826080937A0080913E
:100A20007A00816080937A0080917A008068809358
:100A30007A001092C10010929301109292011092CC
:100A4000CA011092EC010E94510188E291E090935A
:100A500091018093900189E291E090938F018093BE
:100A60008E0182E30E9405030E94F30088E20E9447
:100A700005030E94F30081E00E9405030E94F30039
:100A80008CE00E9405030E94F30086E00E940503AB
:100A90000E94F30080E80E9405030E94F30092E1A7
:100AA000E92E91E0F92E10E000E0AA24A39420E2C0
:100AB000B22EF701C1917F01A092C901B092EB0162
:100AC0001092CA011092EC010C2E000CDD0B6E018D
:100AD000F0EFCF22DD24C6018D600E94FD020E944E
:100AE000F300C60189600E94FD020E94F30084E0C9
:100AF000CC0FDD1F8A95E1F7DD270E94F300CE01C0
:100B00008D600E94FD020E94F300CE0189600E9468
:100B1000FD020E94F3000E9490010F5F1F4F0731FA
:100B2000110539F4C0E0D0E02097F1F30E940000F5
:100B3000FBCF0031110509F0BCCF80EC0E9405030A
:100B4000B8CFEDEEF1E01382128288EE93E0A0E0E0
:100B5000B0E084839583A683B78384E091E091839A
:100B600080830895EE0FFF1F0590F491E02D099406
:040B7000F894FFCF27
:100B740000000000CE02A102020377029A0287025B
:100B84007802417373616C616D7561616C61696B4D
:0A0B9400756D204861626962690016
:00000001FF
